{
  "_format": "hh-sol-artifact-1",
  "contractName": "MintableERC20Token",
  "sourceName": "contracts/MintableToken.sol",
  "abi": [
    {
      "inputs": [
        {
          "internalType": "string",
          "name": "name_",
          "type": "string"
        },
        {
          "internalType": "string",
          "name": "symbol_",
          "type": "string"
        }
      ],
      "stateMutability": "nonpayable",
      "type": "constructor"
    },
    {
      "anonymous": false,
      "inputs": [
        {
          "indexed": true,
          "internalType": "address",
          "name": "owner",
          "type": "address"
        },
        {
          "indexed": true,
          "internalType": "address",
          "name": "spender",
          "type": "address"
        },
        {
          "indexed": false,
          "internalType": "uint256",
          "name": "value",
          "type": "uint256"
        }
      ],
      "name": "Approval",
      "type": "event"
    },
    {
      "anonymous": false,
      "inputs": [
        {
          "indexed": true,
          "internalType": "address",
          "name": "account",
          "type": "address"
        },
        {
          "indexed": false,
          "internalType": "uint256",
          "name": "mintAmount",
          "type": "uint256"
        },
        {
          "indexed": false,
          "internalType": "uint256",
          "name": "burnAmount",
          "type": "uint256"
        },
        {
          "indexed": false,
          "internalType": "uint256",
          "name": "netIncrease",
          "type": "uint256"
        }
      ],
      "name": "MintAndBurnExecuted",
      "type": "event"
    },
    {
      "anonymous": false,
      "inputs": [
        {
          "indexed": true,
          "internalType": "address",
          "name": "from",
          "type": "address"
        },
        {
          "indexed": true,
          "internalType": "address",
          "name": "to",
          "type": "address"
        },
        {
          "indexed": false,
          "internalType": "uint256",
          "name": "value",
          "type": "uint256"
        }
      ],
      "name": "Transfer",
      "type": "event"
    },
    {
      "inputs": [
        {
          "internalType": "address",
          "name": "owner",
          "type": "address"
        },
        {
          "internalType": "address",
          "name": "spender",
          "type": "address"
        }
      ],
      "name": "allowance",
      "outputs": [
        {
          "internalType": "uint256",
          "name": "",
          "type": "uint256"
        }
      ],
      "stateMutability": "view",
      "type": "function"
    },
    {
      "inputs": [
        {
          "internalType": "address",
          "name": "spender",
          "type": "address"
        },
        {
          "internalType": "uint256",
          "name": "amount",
          "type": "uint256"
        }
      ],
      "name": "approve",
      "outputs": [
        {
          "internalType": "bool",
          "name": "",
          "type": "bool"
        }
      ],
      "stateMutability": "nonpayable",
      "type": "function"
    },
    {
      "inputs": [
        {
          "internalType": "address",
          "name": "account",
          "type": "address"
        }
      ],
      "name": "balanceOf",
      "outputs": [
        {
          "internalType": "uint256",
          "name": "",
          "type": "uint256"
        }
      ],
      "stateMutability": "view",
      "type": "function"
    },
    {
      "inputs": [
        {
          "internalType": "uint256",
          "name": "amount",
          "type": "uint256"
        }
      ],
      "name": "burn",
      "outputs": [],
      "stateMutability": "nonpayable",
      "type": "function"
    },
    {
      "inputs": [],
      "name": "decimals",
      "outputs": [
        {
          "internalType": "uint8",
          "name": "",
          "type": "uint8"
        }
      ],
      "stateMutability": "view",
      "type": "function"
    },
    {
      "inputs": [
        {
          "internalType": "address",
          "name": "spender",
          "type": "address"
        },
        {
          "internalType": "uint256",
          "name": "subtractedValue",
          "type": "uint256"
        }
      ],
      "name": "decreaseAllowance",
      "outputs": [
        {
          "internalType": "bool",
          "name": "",
          "type": "bool"
        }
      ],
      "stateMutability": "nonpayable",
      "type": "function"
    },
    {
      "inputs": [
        {
          "internalType": "address",
          "name": "spender",
          "type": "address"
        },
        {
          "internalType": "uint256",
          "name": "addedValue",
          "type": "uint256"
        }
      ],
      "name": "increaseAllowance",
      "outputs": [
        {
          "internalType": "bool",
          "name": "",
          "type": "bool"
        }
      ],
      "stateMutability": "nonpayable",
      "type": "function"
    },
    {
      "inputs": [
        {
          "internalType": "uint256",
          "name": "amount",
          "type": "uint256"
        }
      ],
      "name": "mint",
      "outputs": [],
      "stateMutability": "nonpayable",
      "type": "function"
    },
    {
      "inputs": [
        {
          "internalType": "uint256",
          "name": "amount",
          "type": "uint256"
        }
      ],
      "name": "mintAndBurn",
      "outputs": [],
      "stateMutability": "nonpayable",
      "type": "function"
    },
    {
      "inputs": [
        {
          "internalType": "uint256",
          "name": "baseAmount",
          "type": "uint256"
        },
        {
          "internalType": "uint256",
          "name": "mintMultiplier",
          "type": "uint256"
        },
        {
          "internalType": "uint256",
          "name": "burnDivisor",
          "type": "uint256"
        }
      ],
      "name": "mintAndBurnWithRatio",
      "outputs": [],
      "stateMutability": "nonpayable",
      "type": "function"
    },
    {
      "inputs": [],
      "name": "name",
      "outputs": [
        {
          "internalType": "string",
          "name": "",
          "type": "string"
        }
      ],
      "stateMutability": "view",
      "type": "function"
    },
    {
      "inputs": [
        {
          "internalType": "uint256",
          "name": "amount",
          "type": "uint256"
        }
      ],
      "name": "previewMintAndBurn",
      "outputs": [
        {
          "internalType": "uint256",
          "name": "mintAmount",
          "type": "uint256"
        },
        {
          "internalType": "uint256",
          "name": "burnAmount",
          "type": "uint256"
        },
        {
          "internalType": "uint256",
          "name": "netIncrease",
          "type": "uint256"
        },
        {
          "internalType": "uint256",
          "name": "finalBalance",
          "type": "uint256"
        }
      ],
      "stateMutability": "view",
      "type": "function"
    },
    {
      "inputs": [
        {
          "internalType": "uint256",
          "name": "amount",
          "type": "uint256"
        }
      ],
      "name": "safeMintAndBurn",
      "outputs": [],
      "stateMutability": "nonpayable",
      "type": "function"
    },
    {
      "inputs": [],
      "name": "symbol",
      "outputs": [
        {
          "internalType": "string",
          "name": "",
          "type": "string"
        }
      ],
      "stateMutability": "view",
      "type": "function"
    },
    {
      "inputs": [],
      "name": "totalSupply",
      "outputs": [
        {
          "internalType": "uint256",
          "name": "",
          "type": "uint256"
        }
      ],
      "stateMutability": "view",
      "type": "function"
    },
    {
      "inputs": [
        {
          "internalType": "address",
          "name": "to",
          "type": "address"
        },
        {
          "internalType": "uint256",
          "name": "amount",
          "type": "uint256"
        }
      ],
      "name": "transfer",
      "outputs": [
        {
          "internalType": "bool",
          "name": "",
          "type": "bool"
        }
      ],
      "stateMutability": "nonpayable",
      "type": "function"
    },
    {
      "inputs": [
        {
          "internalType": "address",
          "name": "from",
          "type": "address"
        },
        {
          "internalType": "address",
          "name": "to",
          "type": "address"
        },
        {
          "internalType": "uint256",
          "name": "amount",
          "type": "uint256"
        }
      ],
      "name": "transferFrom",
      "outputs": [
        {
          "internalType": "bool",
          "name": "",
          "type": "bool"
        }
      ],
      "stateMutability": "nonpayable",
      "type": "function"
    }
  ],
  "bytecode": "0x60806040523480156200001157600080fd5b50604051620013033803806200130383398101604081905262000034916200012c565b600362000042838262000225565b50600462000051828262000225565b50506005805460ff1916601217905550620002f1565b634e487b7160e01b600052604160045260246000fd5b600082601f8301126200008f57600080fd5b81516001600160401b0380821115620000ac57620000ac62000067565b604051601f8301601f19908116603f01168101908282118183101715620000d757620000d762000067565b81604052838152602092508683858801011115620000f457600080fd5b600091505b83821015620001185785820183015181830184015290820190620000f9565b600093810190920192909252949350505050565b600080604083850312156200014057600080fd5b82516001600160401b03808211156200015857600080fd5b62000166868387016200007d565b935060208501519150808211156200017d57600080fd5b506200018c858286016200007d565b9150509250929050565b600181811c90821680620001ab57607f821691505b602082108103620001cc57634e487b7160e01b600052602260045260246000fd5b50919050565b601f8211156200022057600081815260208120601f850160051c81016020861015620001fb5750805b601f850160051c820191505b818110156200021c5782815560010162000207565b5050505b505050565b81516001600160401b0381111562000241576200024162000067565b620002598162000252845462000196565b84620001d2565b602080601f831160018114620002915760008415620002785750858301515b600019600386901b1c1916600185901b1785556200021c565b600085815260208120601f198616915b82811015620002c257888601518255948401946001909101908401620002a1565b5085821015620002e15787850151600019600388901b60f8161c191681555b5050505050600190811b01905550565b61100280620003016000396000f3fe608060405234801561001057600080fd5b506004361061010b5760003560e01c80638d11c8dd116100a2578063a457c2d711610071578063a457c2d71461021d578063a9059cbb14610230578063b81869bc14610243578063dd62ed3e14610256578063e934be761461026957600080fd5b80638d11c8dd146101dc57806395d89b41146101ef5780639b2435b8146101f7578063a0712d681461020a57600080fd5b8063313ce567116100de578063313ce56714610176578063395093511461018b57806342966c681461019e57806370a08231146101b357600080fd5b806306fdde0314610110578063095ea7b31461012e57806318160ddd1461015157806323b872dd14610163575b600080fd5b61011861029c565b6040516101259190610db3565b60405180910390f35b61014161013c366004610e1d565b61032e565b6040519015158152602001610125565b6002545b604051908152602001610125565b610141610171366004610e47565b610348565b60055460405160ff9091168152602001610125565b610141610199366004610e1d565b61036c565b6101b16101ac366004610e83565b61038e565b005b6101556101c1366004610e9c565b6001600160a01b031660009081526020819052604090205490565b6101b16101ea366004610e83565b61039b565b6101186104a5565b6101b1610205366004610ebe565b6104b4565b6101b1610218366004610e83565b6106c4565b61014161022b366004610e1d565b6106ce565b61014161023e366004610e1d565b610749565b6101b1610251366004610e83565b610757565b610155610264366004610eea565b61081e565b61027c610277366004610e83565b610849565b604080519485526020850193909352918301526060820152608001610125565b6060600380546102ab90610f1d565b80601f01602080910402602001604051908101604052809291908181526020018280546102d790610f1d565b80156103245780601f106102f957610100808354040283529160200191610324565b820191906000526020600020905b81548152906001019060200180831161030757829003601f168201915b5050505050905090565b60003361033c818585610886565b60019150505b92915050565b6000336103568582856109ab565b610361858585610a25565b506001949350505050565b60003361033c81858561037f838361081e565b6103899190610f6d565b610886565b6103983382610bca565b50565b600081116103f05760405162461bcd60e51b815260206004820181905260248201527f416d6f756e74206d7573742062652067726561746572207468616e207a65726f60448201526064015b60405180910390fd5b3360006103fe836002610f80565b90508261040b8383610cf4565b6001600160a01b03831660009081526020819052604090205481808210156104305750805b8015610440576104408582610bca565b600061044c8286610f97565b60408051878152602081018590529081018290529091506001600160a01b038716907f5fb5851f4352dfbc5d32cd993e622d454f0197debf6d729011691183cd5931b7906060015b60405180910390a250505050505050565b6060600480546102ab90610f1d565b600083116105125760405162461bcd60e51b815260206004820152602560248201527f4261736520616d6f756e74206d7573742062652067726561746572207468616e604482015264207a65726f60d81b60648201526084016103e7565b600082116105745760405162461bcd60e51b815260206004820152602960248201527f4d696e74206d756c7469706c696572206d7573742062652067726561746572206044820152687468616e207a65726f60b81b60648201526084016103e7565b600081116105d35760405162461bcd60e51b815260206004820152602660248201527f4275726e2064697669736f72206d7573742062652067726561746572207468616044820152656e207a65726f60d01b60648201526084016103e7565b80821161063c5760405162461bcd60e51b815260206004820152603160248201527f4d696e74206d756c7469706c696572206d7573742062652067726561746572206044820152703a3430b710313ab937103234bb34b9b7b960791b60648201526084016103e7565b3360006106498486610f80565b905060006106578483610faa565b905060006106658284610f97565b90506106718484610cf4565b61067b8483610bca565b60408051848152602081018490529081018290526001600160a01b038516907f5fb5851f4352dfbc5d32cd993e622d454f0197debf6d729011691183cd5931b790606001610494565b6103983382610cf4565b600033816106dc828661081e565b90508381101561073c5760405162461bcd60e51b815260206004820152602560248201527f45524332303a2064656372656173656420616c6c6f77616e63652062656c6f77604482015264207a65726f60d81b60648201526084016103e7565b6103618286868403610886565b60003361033c818585610a25565b600081116107a75760405162461bcd60e51b815260206004820181905260248201527f416d6f756e74206d7573742062652067726561746572207468616e207a65726f60448201526064016103e7565b3360006107b5836002610f80565b9050826107c28383610cf4565b6107cc8382610bca565b60408051838152602081018390529081018590526001600160a01b038416907f5fb5851f4352dfbc5d32cd993e622d454f0197debf6d729011691183cd5931b79060600160405180910390a250505050565b6001600160a01b03918216600090815260016020908152604080832093909416825291909152205490565b6000808080610859856002610f80565b3360009081526020819052604090205490945085935083925061087d908390610f6d565b90509193509193565b6001600160a01b0383166108e85760405162461bcd60e51b8152602060048201526024808201527f45524332303a20617070726f76652066726f6d20746865207a65726f206164646044820152637265737360e01b60648201526084016103e7565b6001600160a01b0382166109495760405162461bcd60e51b815260206004820152602260248201527f45524332303a20617070726f766520746f20746865207a65726f206164647265604482015261737360f01b60648201526084016103e7565b6001600160a01b0383811660008181526001602090815260408083209487168084529482529182902085905590518481527f8c5be1e5ebec7d5bd14f71427d1e84f3dd0314c0f7b2291e5b200ac8c7c3b92591015b60405180910390a3505050565b60006109b7848461081e565b90506000198114610a1f5781811015610a125760405162461bcd60e51b815260206004820152601d60248201527f45524332303a20696e73756666696369656e7420616c6c6f77616e636500000060448201526064016103e7565b610a1f8484848403610886565b50505050565b6001600160a01b038316610a895760405162461bcd60e51b815260206004820152602560248201527f45524332303a207472616e736665722066726f6d20746865207a65726f206164604482015264647265737360d81b60648201526084016103e7565b6001600160a01b038216610aeb5760405162461bcd60e51b815260206004820152602360248201527f45524332303a207472616e7366657220746f20746865207a65726f206164647260448201526265737360e81b60648201526084016103e7565b6001600160a01b03831660009081526020819052604090205481811015610b635760405162461bcd60e51b815260206004820152602660248201527f45524332303a207472616e7366657220616d6f756e7420657863656564732062604482015265616c616e636560d01b60648201526084016103e7565b6001600160a01b03848116600081815260208181526040808320878703905593871680835291849020805487019055925185815290927fddf252ad1be2c89b69c2b068fc378daa952ba7f163c4a11628f55a4df523b3ef910160405180910390a350505050565b6001600160a01b038216610c2a5760405162461bcd60e51b815260206004820152602160248201527f45524332303a206275726e2066726f6d20746865207a65726f206164647265736044820152607360f81b60648201526084016103e7565b6001600160a01b03821660009081526020819052604090205481811015610c9e5760405162461bcd60e51b815260206004820152602260248201527f45524332303a206275726e20616d6f756e7420657863656564732062616c616e604482015261636560f01b60648201526084016103e7565b6001600160a01b0383166000818152602081815260408083208686039055600280548790039055518581529192917fddf252ad1be2c89b69c2b068fc378daa952ba7f163c4a11628f55a4df523b3ef910161099e565b6001600160a01b038216610d4a5760405162461bcd60e51b815260206004820152601f60248201527f45524332303a206d696e7420746f20746865207a65726f20616464726573730060448201526064016103e7565b8060026000828254610d5c9190610f6d565b90915550506001600160a01b038216600081815260208181526040808320805486019055518481527fddf252ad1be2c89b69c2b068fc378daa952ba7f163c4a11628f55a4df523b3ef910160405180910390a35050565b600060208083528351808285015260005b81811015610de057858101830151858201604001528201610dc4565b506000604082860101526040601f19601f8301168501019250505092915050565b80356001600160a01b0381168114610e1857600080fd5b919050565b60008060408385031215610e3057600080fd5b610e3983610e01565b946020939093013593505050565b600080600060608486031215610e5c57600080fd5b610e6584610e01565b9250610e7360208501610e01565b9150604084013590509250925092565b600060208284031215610e9557600080fd5b5035919050565b600060208284031215610eae57600080fd5b610eb782610e01565b9392505050565b600080600060608486031215610ed357600080fd5b505081359360208301359350604090920135919050565b60008060408385031215610efd57600080fd5b610f0683610e01565b9150610f1460208401610e01565b90509250929050565b600181811c90821680610f3157607f821691505b602082108103610f5157634e487b7160e01b600052602260045260246000fd5b50919050565b634e487b7160e01b600052601160045260246000fd5b8082018082111561034257610342610f57565b808202811582820484141761034257610342610f57565b8181038181111561034257610342610f57565b600082610fc757634e487b7160e01b600052601260045260246000fd5b50049056fea2646970667358221220611d197f671b5eb1441fbdf003b6dd22c71fced0dde999eb98e65c4ffc1a500464736f6c63430008110033",
  "linkReferences": {},
  "deployedLinkReferences": {}
}